{
  "_format": "hh-sol-artifact-1",
  "contractName": "Rifa",
  "sourceName": "contracts/main.sol",
  "abi": [
    {
      "inputs": [
        {
          "internalType": "uint256",
          "name": "_totalTickets",
          "type": "uint256"
        },
        {
          "internalType": "uint256",
          "name": "_ticketPrice",
          "type": "uint256"
        }
      ],
      "stateMutability": "nonpayable",
      "type": "constructor"
    },
    {
      "anonymous": false,
      "inputs": [
        {
          "indexed": false,
          "internalType": "address",
          "name": "winner",
          "type": "address"
        },
        {
          "indexed": false,
          "internalType": "uint256",
          "name": "ticketNumber",
          "type": "uint256"
        },
        {
          "indexed": false,
          "internalType": "uint256",
          "name": "prizeAmount",
          "type": "uint256"
        }
      ],
      "name": "RaffleEnded",
      "type": "event"
    },
    {
      "anonymous": false,
      "inputs": [
        {
          "indexed": false,
          "internalType": "address",
          "name": "buyer",
          "type": "address"
        },
        {
          "indexed": false,
          "internalType": "uint256",
          "name": "ticketNumber",
          "type": "uint256"
        }
      ],
      "name": "TicketPurchased",
      "type": "event"
    },
    {
      "inputs": [
        {
          "internalType": "uint256[]",
          "name": "ticketNumbers",
          "type": "uint256[]"
        }
      ],
      "name": "buySpecificTickets",
      "outputs": [],
      "stateMutability": "payable",
      "type": "function"
    },
    {
      "inputs": [
        {
          "internalType": "uint256",
          "name": "number",
          "type": "uint256"
        }
      ],
      "name": "getOwnerOfTicket",
      "outputs": [
        {
          "internalType": "address",
          "name": "",
          "type": "address"
        }
      ],
      "stateMutability": "view",
      "type": "function"
    },
    {
      "inputs": [],
      "name": "getSoldTickets",
      "outputs": [
        {
          "internalType": "uint256[]",
          "name": "",
          "type": "uint256[]"
        }
      ],
      "stateMutability": "view",
      "type": "function"
    },
    {
      "inputs": [],
      "name": "owner",
      "outputs": [
        {
          "internalType": "address",
          "name": "",
          "type": "address"
        }
      ],
      "stateMutability": "view",
      "type": "function"
    },
    {
      "inputs": [],
      "name": "raffleEnded",
      "outputs": [
        {
          "internalType": "bool",
          "name": "",
          "type": "bool"
        }
      ],
      "stateMutability": "view",
      "type": "function"
    },
    {
      "inputs": [
        {
          "internalType": "uint256",
          "name": "",
          "type": "uint256"
        }
      ],
      "name": "soldTicketNumbers",
      "outputs": [
        {
          "internalType": "uint256",
          "name": "",
          "type": "uint256"
        }
      ],
      "stateMutability": "view",
      "type": "function"
    },
    {
      "inputs": [],
      "name": "soldTickets",
      "outputs": [
        {
          "internalType": "uint256",
          "name": "",
          "type": "uint256"
        }
      ],
      "stateMutability": "view",
      "type": "function"
    },
    {
      "inputs": [
        {
          "internalType": "uint256",
          "name": "",
          "type": "uint256"
        }
      ],
      "name": "ticketOwners",
      "outputs": [
        {
          "internalType": "address",
          "name": "",
          "type": "address"
        }
      ],
      "stateMutability": "view",
      "type": "function"
    },
    {
      "inputs": [],
      "name": "ticketPrice",
      "outputs": [
        {
          "internalType": "uint256",
          "name": "",
          "type": "uint256"
        }
      ],
      "stateMutability": "view",
      "type": "function"
    },
    {
      "inputs": [],
      "name": "totalTickets",
      "outputs": [
        {
          "internalType": "uint256",
          "name": "",
          "type": "uint256"
        }
      ],
      "stateMutability": "view",
      "type": "function"
    }
  ],
  "bytecode": "0x608060405234801561001057600080fd5b5060405161156a38038061156a833981810160405281019061003291906100e5565b336000806101000a81548173ffffffffffffffffffffffffffffffffffffffff021916908373ffffffffffffffffffffffffffffffffffffffff160217905550816002819055508060018190555060006003819055506000600460006101000a81548160ff0219169083151502179055505050610125565b600080fd5b6000819050919050565b6100c2816100af565b81146100cd57600080fd5b50565b6000815190506100df816100b9565b92915050565b600080604083850312156100fc576100fb6100aa565b5b600061010a858286016100d0565b925050602061011b858286016100d0565b9150509250929050565b611436806101346000396000f3fe6080604052600436106100915760003560e01c80639d755367116100595780639d7553671461017f578063a31aa84b146101bc578063bcc20c12146101e7578063dd11247e14610203578063eb2dbcf61461022e57610091565b80631209b1f6146100965780632aa51bdf146100c15780636b762daa146100ec578063898c3efb146101175780638da5cb5b14610154575b600080fd5b3480156100a257600080fd5b506100ab61026b565b6040516100b8919061095a565b60405180910390f35b3480156100cd57600080fd5b506100d6610271565b6040516100e39190610a33565b60405180910390f35b3480156100f857600080fd5b506101016102c9565b60405161010e9190610a70565b60405180910390f35b34801561012357600080fd5b5061013e60048036038101906101399190610acb565b6102dc565b60405161014b919061095a565b60405180910390f35b34801561016057600080fd5b50610169610300565b6040516101769190610b39565b60405180910390f35b34801561018b57600080fd5b506101a660048036038101906101a19190610acb565b610324565b6040516101b39190610b39565b60405180910390f35b3480156101c857600080fd5b506101d1610361565b6040516101de919061095a565b60405180910390f35b61020160048036038101906101fc9190610cad565b610367565b005b34801561020f57600080fd5b506102186106ae565b604051610225919061095a565b60405180910390f35b34801561023a57600080fd5b5061025560048036038101906102509190610acb565b6106b4565b6040516102629190610b39565b60405180910390f35b60015481565b606060068054806020026020016040519081016040528092919081815260200182805480156102bf57602002820191906000526020600020905b8154815260200190600101908083116102ab575b5050505050905090565b600460009054906101000a900460ff1681565b600681815481106102ec57600080fd5b906000526020600020016000915090505481565b60008054906101000a900473ffffffffffffffffffffffffffffffffffffffff1681565b60006005600083815260200190815260200160002060009054906101000a900473ffffffffffffffffffffffffffffffffffffffff169050919050565b60035481565b600460009054906101000a900460ff16156103b7576040517f08c379a00000000000000000000000000000000000000000000000000000000081526004016103ae90610d53565b60405180910390fd5b60008151116103fb576040517f08c379a00000000000000000000000000000000000000000000000000000000081526004016103f290610de5565b60405180910390fd5b600254815160035461040d9190610e34565b111561044e576040517f08c379a000000000000000000000000000000000000000000000000000000000815260040161044590610eb4565b60405180910390fd5b805160015461045d9190610ed4565b341461049e576040517f08c379a000000000000000000000000000000000000000000000000000000000815260040161049590610f62565b60405180910390fd5b60005b81518110156106965760008282815181106104bf576104be610f82565b5b602002602001015190506000811180156104db57506002548111155b61051a576040517f08c379a000000000000000000000000000000000000000000000000000000000815260040161051190610ffd565b60405180910390fd5b600073ffffffffffffffffffffffffffffffffffffffff166005600083815260200190815260200160002060009054906101000a900473ffffffffffffffffffffffffffffffffffffffff1673ffffffffffffffffffffffffffffffffffffffff16146105bc576040517f08c379a00000000000000000000000000000000000000000000000000000000081526004016105b390611069565b60405180910390fd5b336005600083815260200190815260200160002060006101000a81548173ffffffffffffffffffffffffffffffffffffffff021916908373ffffffffffffffffffffffffffffffffffffffff16021790555060068190806001815401808255809150506001900390600052602060002001600090919091909150556003600081548092919061064a90611089565b91905055507f0668f5b446eb814fe35b3206f43f14bd8567ba04ddaf7a3ee56516929ab22ccb33826040516106809291906110d1565b60405180910390a15080806001019150506104a1565b50600254600354036106ab576106aa6106e7565b5b50565b60025481565b60056020528060005260406000206000915054906101000a900473ffffffffffffffffffffffffffffffffffffffff1681565b6002546003541461072d576040517f08c379a000000000000000000000000000000000000000000000000000000000815260040161072490611146565b60405180910390fd5b60006107376108e1565b905060006006828154811061074f5761074e610f82565b5b9060005260206000200154905060006005600083815260200190815260200160002060009054906101000a900473ffffffffffffffffffffffffffffffffffffffff16905060006001546002546107a69190610ed4565b9050600060646050836107b99190610ed4565b6107c39190611195565b9050600081836107d391906111c6565b90508373ffffffffffffffffffffffffffffffffffffffff166108fc839081150290604051600060405180830381858888f1935050505015801561081b573d6000803e3d6000fd5b5060008054906101000a900473ffffffffffffffffffffffffffffffffffffffff1673ffffffffffffffffffffffffffffffffffffffff166108fc829081150290604051600060405180830381858888f19350505050158015610882573d6000803e3d6000fd5b506001600460006101000a81548160ff0219169083151502179055507feb899ff7b0f3b648d559b5c2535e9ae8567a95f19f185ab5fbc9a35ad1be333f8486846040516108d1939291906111fa565b60405180910390a1505050505050565b6000806001436108f191906111c6565b4090506000814244600660405160200161090e9493929190611385565b6040516020818303038152906040528051906020012060001c90506006805490508161093a91906113cf565b9250505090565b6000819050919050565b61095481610941565b82525050565b600060208201905061096f600083018461094b565b92915050565b600081519050919050565b600082825260208201905092915050565b6000819050602082019050919050565b6109aa81610941565b82525050565b60006109bc83836109a1565b60208301905092915050565b6000602082019050919050565b60006109e082610975565b6109ea8185610980565b93506109f583610991565b8060005b83811015610a26578151610a0d88826109b0565b9750610a18836109c8565b9250506001810190506109f9565b5085935050505092915050565b60006020820190508181036000830152610a4d81846109d5565b905092915050565b60008115159050919050565b610a6a81610a55565b82525050565b6000602082019050610a856000830184610a61565b92915050565b6000604051905090565b600080fd5b600080fd5b610aa881610941565b8114610ab357600080fd5b50565b600081359050610ac581610a9f565b92915050565b600060208284031215610ae157610ae0610a95565b5b6000610aef84828501610ab6565b91505092915050565b600073ffffffffffffffffffffffffffffffffffffffff82169050919050565b6000610b2382610af8565b9050919050565b610b3381610b18565b82525050565b6000602082019050610b4e6000830184610b2a565b92915050565b600080fd5b6000601f19601f8301169050919050565b7f4e487b7100000000000000000000000000000000000000000000000000000000600052604160045260246000fd5b610ba282610b59565b810181811067ffffffffffffffff82111715610bc157610bc0610b6a565b5b80604052505050565b6000610bd4610a8b565b9050610be08282610b99565b919050565b600067ffffffffffffffff821115610c0057610bff610b6a565b5b602082029050602081019050919050565b600080fd5b6000610c29610c2484610be5565b610bca565b90508083825260208201905060208402830185811115610c4c57610c4b610c11565b5b835b81811015610c755780610c618882610ab6565b845260208401935050602081019050610c4e565b5050509392505050565b600082601f830112610c9457610c93610b54565b5b8135610ca4848260208601610c16565b91505092915050565b600060208284031215610cc357610cc2610a95565b5b600082013567ffffffffffffffff811115610ce157610ce0610a9a565b5b610ced84828501610c7f565b91505092915050565b600082825260208201905092915050565b7f52696661206a61207465726d696e6f752e000000000000000000000000000000600082015250565b6000610d3d601183610cf6565b9150610d4882610d07565b602082019050919050565b60006020820190508181036000830152610d6c81610d30565b9050919050565b7f50726563697361206573636f6c6865722070656c6f206d656e6f7320756d206e60008201527f756d65726f000000000000000000000000000000000000000000000000000000602082015250565b6000610dcf602583610cf6565b9150610dda82610d73565b604082019050919050565b60006020820190508181036000830152610dfe81610dc2565b9050919050565b7f4e487b7100000000000000000000000000000000000000000000000000000000600052601160045260246000fd5b6000610e3f82610941565b9150610e4a83610941565b9250828201905080821115610e6257610e61610e05565b5b92915050565b7f4e616f2068612062696c686574657320737566696369656e7465732e2e2e0000600082015250565b6000610e9e601e83610cf6565b9150610ea982610e68565b602082019050919050565b60006020820190508181036000830152610ecd81610e91565b9050919050565b6000610edf82610941565b9150610eea83610941565b9250828202610ef881610941565b91508282048414831517610f0f57610f0e610e05565b5b5092915050565b7f56616c6f7220696e636f727265746f0000000000000000000000000000000000600082015250565b6000610f4c600f83610cf6565b9150610f5782610f16565b602082019050919050565b60006020820190508181036000830152610f7b81610f3f565b9050919050565b7f4e487b7100000000000000000000000000000000000000000000000000000000600052603260045260246000fd5b7f4e756d65726f2064652062696c6865746520696e76616c69646f000000000000600082015250565b6000610fe7601a83610cf6565b9150610ff282610fb1565b602082019050919050565b6000602082019050818103600083015261101681610fda565b9050919050565b7f42696c68657465206a612076656e6469646f0000000000000000000000000000600082015250565b6000611053601283610cf6565b915061105e8261101d565b602082019050919050565b6000602082019050818103600083015261108281611046565b9050919050565b600061109482610941565b91507fffffffffffffffffffffffffffffffffffffffffffffffffffffffffffffffff82036110c6576110c5610e05565b5b600182019050919050565b60006040820190506110e66000830185610b2a565b6110f3602083018461094b565b9392505050565b7f526966612061696e6461206e616f207465726d696e6f75000000000000000000600082015250565b6000611130601783610cf6565b915061113b826110fa565b602082019050919050565b6000602082019050818103600083015261115f81611123565b9050919050565b7f4e487b7100000000000000000000000000000000000000000000000000000000600052601260045260246000fd5b60006111a082610941565b91506111ab83610941565b9250826111bb576111ba611166565b5b828204905092915050565b60006111d182610941565b91506111dc83610941565b92508282039050818111156111f4576111f3610e05565b5b92915050565b600060608201905061120f6000830186610b2a565b61121c602083018561094b565b611229604083018461094b565b949350505050565b6000819050919050565b6000819050919050565b61125661125182611231565b61123b565b82525050565b6000819050919050565b61127761127282610941565b61125c565b82525050565b600081549050919050565b600081905092915050565b60008190508160005260206000209050919050565b6112b181610941565b82525050565b60006112c383836112a8565b60208301905092915050565b60008160001c9050919050565b6000819050919050565b60006112f96112f4836112cf565b6112dc565b9050919050565b600061130c82546112e6565b9050919050565b6000600182019050919050565b600061132b8261127d565b6113358185611288565b935061134083611293565b8060005b838110156113785761135582611300565b61135f88826112b7565b975061136a83611313565b925050600181019050611344565b5085935050505092915050565b60006113918287611245565b6020820191506113a18286611266565b6020820191506113b18285611266565b6020820191506113c18284611320565b915081905095945050505050565b60006113da82610941565b91506113e583610941565b9250826113f5576113f4611166565b5b82820690509291505056fea264697066735822122082987af4721ea6b6f2112ab7127e8e228d346dcfac30ac5b73811778ad44e2a464736f6c634300081c0033",
  "linkReferences": {},
  "deployedLinkReferences": {}
}