{
  "_format": "hh-sol-artifact-1",
  "contractName": "Rifa",
  "sourceName": "contracts/main.sol",
  "abi": [
    {
      "inputs": [
        {
          "internalType": "uint256",
          "name": "_totalTickets",
          "type": "uint256"
        },
        {
          "internalType": "uint256",
          "name": "_ticketPrice",
          "type": "uint256"
        }
      ],
      "stateMutability": "nonpayable",
      "type": "constructor"
    },
    {
      "anonymous": false,
      "inputs": [
        {
          "indexed": false,
          "internalType": "address",
          "name": "winner",
          "type": "address"
        },
        {
          "indexed": false,
          "internalType": "uint256",
          "name": "prizeAmount",
          "type": "uint256"
        }
      ],
      "name": "RaffleEnded",
      "type": "event"
    },
    {
      "inputs": [
        {
          "internalType": "uint256",
          "name": "qtd",
          "type": "uint256"
        }
      ],
      "name": "buyTicket",
      "outputs": [],
      "stateMutability": "payable",
      "type": "function"
    },
    {
      "inputs": [],
      "name": "getRaffleStatus",
      "outputs": [
        {
          "internalType": "uint256",
          "name": "",
          "type": "uint256"
        },
        {
          "internalType": "uint256",
          "name": "",
          "type": "uint256"
        },
        {
          "internalType": "bool",
          "name": "",
          "type": "bool"
        }
      ],
      "stateMutability": "view",
      "type": "function"
    },
    {
      "inputs": [],
      "name": "owner",
      "outputs": [
        {
          "internalType": "address",
          "name": "",
          "type": "address"
        }
      ],
      "stateMutability": "view",
      "type": "function"
    },
    {
      "inputs": [
        {
          "internalType": "uint256",
          "name": "",
          "type": "uint256"
        }
      ],
      "name": "participants",
      "outputs": [
        {
          "internalType": "address",
          "name": "",
          "type": "address"
        }
      ],
      "stateMutability": "view",
      "type": "function"
    },
    {
      "inputs": [],
      "name": "raffleEnded",
      "outputs": [
        {
          "internalType": "bool",
          "name": "",
          "type": "bool"
        }
      ],
      "stateMutability": "view",
      "type": "function"
    },
    {
      "inputs": [],
      "name": "soldTickets",
      "outputs": [
        {
          "internalType": "uint256",
          "name": "",
          "type": "uint256"
        }
      ],
      "stateMutability": "view",
      "type": "function"
    },
    {
      "inputs": [],
      "name": "ticketPrice",
      "outputs": [
        {
          "internalType": "uint256",
          "name": "",
          "type": "uint256"
        }
      ],
      "stateMutability": "view",
      "type": "function"
    },
    {
      "inputs": [],
      "name": "totalTickets",
      "outputs": [
        {
          "internalType": "uint256",
          "name": "",
          "type": "uint256"
        }
      ],
      "stateMutability": "view",
      "type": "function"
    }
  ],
  "bytecode": "0x608060405234801561001057600080fd5b50604051610f92380380610f92833981810160405281019061003291906100e5565b336000806101000a81548173ffffffffffffffffffffffffffffffffffffffff021916908373ffffffffffffffffffffffffffffffffffffffff160217905550816002819055508060018190555060006003819055506000600560006101000a81548160ff0219169083151502179055505050610125565b600080fd5b6000819050919050565b6100c2816100af565b81146100cd57600080fd5b50565b6000815190506100df816100b9565b92915050565b600080604083850312156100fc576100fb6100aa565b5b600061010a858286016100d0565b925050602061011b858286016100d0565b9150509250929050565b610e5e806101346000396000f3fe60806040526004361061007b5760003560e01c80638da5cb5b1161004e5780638da5cb5b1461012f578063a31aa84b1461015a578063dd11247e14610185578063dd8af4cf146101b05761007b565b80631209b1f61461008057806335c1d349146100ab57806367dd74ca146100e85780636b762daa14610104575b600080fd5b34801561008c57600080fd5b506100956101dd565b6040516100a291906106d5565b60405180910390f35b3480156100b757600080fd5b506100d260048036038101906100cd9190610721565b6101e3565b6040516100df919061078f565b60405180910390f35b61010260048036038101906100fd9190610721565b610222565b005b34801561011057600080fd5b50610119610401565b60405161012691906107c5565b60405180910390f35b34801561013b57600080fd5b50610144610414565b604051610151919061078f565b60405180910390f35b34801561016657600080fd5b5061016f610438565b60405161017c91906106d5565b60405180910390f35b34801561019157600080fd5b5061019a61043e565b6040516101a791906106d5565b60405180910390f35b3480156101bc57600080fd5b506101c5610444565b6040516101d4939291906107e0565b60405180910390f35b60015481565b600481815481106101f357600080fd5b906000526020600020016000915054906101000a900473ffffffffffffffffffffffffffffffffffffffff1681565b600560009054906101000a900460ff1615610272576040517f08c379a000000000000000000000000000000000000000000000000000000000815260040161026990610874565b60405180910390fd5b600081116102b5576040517f08c379a00000000000000000000000000000000000000000000000000000000081526004016102ac90610906565b60405180910390fd5b600254816003546102c69190610955565b1115610307576040517f08c379a00000000000000000000000000000000000000000000000000000000081526004016102fe906109d5565b60405180910390fd5b8060015461031591906109f5565b3414610356576040517f08c379a000000000000000000000000000000000000000000000000000000000815260040161034d90610a83565b60405180910390fd5b60005b818110156103e9576004339080600181540180825580915050600190039060005260206000200160009091909190916101000a81548173ffffffffffffffffffffffffffffffffffffffff021916908373ffffffffffffffffffffffffffffffffffffffff160217905550600360008154809291906103d790610aa3565b91905055508080600101915050610359565b50600254600354036103fe576103fd61046a565b5b50565b600560009054906101000a900460ff1681565b60008054906101000a900473ffffffffffffffffffffffffffffffffffffffff1681565b60035481565b60025481565b6000806000600354600254600560009054906101000a900460ff16925092509250909192565b600254600354146104b0576040517f08c379a00000000000000000000000000000000000000000000000000000000081526004016104a790610b37565b60405180910390fd5b60006104ba610656565b90506000600482815481106104d2576104d1610b57565b5b9060005260206000200160009054906101000a900473ffffffffffffffffffffffffffffffffffffffff169050600060015460025461051191906109f5565b90506000606460508361052491906109f5565b61052e9190610bb5565b90506000606460148461054191906109f5565b61054b9190610bb5565b90508373ffffffffffffffffffffffffffffffffffffffff166108fc839081150290604051600060405180830381858888f19350505050158015610593573d6000803e3d6000fd5b5060008054906101000a900473ffffffffffffffffffffffffffffffffffffffff1673ffffffffffffffffffffffffffffffffffffffff166108fc829081150290604051600060405180830381858888f193505050501580156105fa573d6000803e3d6000fd5b506001600560006101000a81548160ff0219169083151502179055507fb759574c0dac2da3f8ab8dba50cbc5f71203d9acddf839bd97e9247c8efc4e868483604051610647929190610be6565b60405180910390a15050505050565b6000806001436106669190610c0f565b409050600081424460046040516020016106839493929190610dad565b6040516020818303038152906040528051906020012060001c90506000600480549050826106b19190610df7565b905080935050505090565b6000819050919050565b6106cf816106bc565b82525050565b60006020820190506106ea60008301846106c6565b92915050565b600080fd5b6106fe816106bc565b811461070957600080fd5b50565b60008135905061071b816106f5565b92915050565b600060208284031215610737576107366106f0565b5b60006107458482850161070c565b91505092915050565b600073ffffffffffffffffffffffffffffffffffffffff82169050919050565b60006107798261074e565b9050919050565b6107898161076e565b82525050565b60006020820190506107a46000830184610780565b92915050565b60008115159050919050565b6107bf816107aa565b82525050565b60006020820190506107da60008301846107b6565b92915050565b60006060820190506107f560008301866106c6565b61080260208301856106c6565b61080f60408301846107b6565b949350505050565b600082825260208201905092915050565b7f52696661207465726d696e6f752e2e2e00000000000000000000000000000000600082015250565b600061085e601083610817565b915061086982610828565b602082019050919050565b6000602082019050818103600083015261088d81610851565b9050919050565b7f5072656369736120636f6d707261722070656c6f206d656e6f7320312062696c60008201527f6865746521000000000000000000000000000000000000000000000000000000602082015250565b60006108f0602583610817565b91506108fb82610894565b604082019050919050565b6000602082019050818103600083015261091f816108e3565b9050919050565b7f4e487b7100000000000000000000000000000000000000000000000000000000600052601160045260246000fd5b6000610960826106bc565b915061096b836106bc565b925082820190508082111561098357610982610926565b5b92915050565b7f4e616f2068612062696c686574657320737566696369656e7465732e2e2e0000600082015250565b60006109bf601e83610817565b91506109ca82610989565b602082019050919050565b600060208201905081810360008301526109ee816109b2565b9050919050565b6000610a00826106bc565b9150610a0b836106bc565b9250828202610a19816106bc565b91508282048414831517610a3057610a2f610926565b5b5092915050565b7f56616c6f7220696e636f727265746f2070617261206f732062696c6865746573600082015250565b6000610a6d602083610817565b9150610a7882610a37565b602082019050919050565b60006020820190508181036000830152610a9c81610a60565b9050919050565b6000610aae826106bc565b91507fffffffffffffffffffffffffffffffffffffffffffffffffffffffffffffffff8203610ae057610adf610926565b5b600182019050919050565b7f52696661206e616f207465726d696e6f75000000000000000000000000000000600082015250565b6000610b21601183610817565b9150610b2c82610aeb565b602082019050919050565b60006020820190508181036000830152610b5081610b14565b9050919050565b7f4e487b7100000000000000000000000000000000000000000000000000000000600052603260045260246000fd5b7f4e487b7100000000000000000000000000000000000000000000000000000000600052601260045260246000fd5b6000610bc0826106bc565b9150610bcb836106bc565b925082610bdb57610bda610b86565b5b828204905092915050565b6000604082019050610bfb6000830185610780565b610c0860208301846106c6565b9392505050565b6000610c1a826106bc565b9150610c25836106bc565b9250828203905081811115610c3d57610c3c610926565b5b92915050565b6000819050919050565b6000819050919050565b610c68610c6382610c43565b610c4d565b82525050565b6000819050919050565b610c89610c84826106bc565b610c6e565b82525050565b600081549050919050565b600081905092915050565b60008190508160005260206000209050919050565b610cc38161076e565b82525050565b6000610cd58383610cba565b60208301905092915050565b60008160001c9050919050565b600073ffffffffffffffffffffffffffffffffffffffff82169050919050565b6000610d21610d1c83610ce1565b610cee565b9050919050565b6000610d348254610d0e565b9050919050565b6000600182019050919050565b6000610d5382610c8f565b610d5d8185610c9a565b9350610d6883610ca5565b8060005b83811015610da057610d7d82610d28565b610d878882610cc9565b9750610d9283610d3b565b925050600181019050610d6c565b5085935050505092915050565b6000610db98287610c57565b602082019150610dc98286610c78565b602082019150610dd98285610c78565b602082019150610de98284610d48565b915081905095945050505050565b6000610e02826106bc565b9150610e0d836106bc565b925082610e1d57610e1c610b86565b5b82820690509291505056fea26469706673582212209b86f8d1a1ecec10d14203abeddbf60e3e49b588633425f9e47d945e65d1403164736f6c634300081c0033",
  "linkReferences": {},
  "deployedLinkReferences": {}
}