{
  "_format": "hh-sol-artifact-1",
  "contractName": "Rifa",
  "sourceName": "contracts/main.sol",
  "abi": [
    {
      "inputs": [
        {
          "internalType": "uint256",
          "name": "_totalTickets",
          "type": "uint256"
        },
        {
          "internalType": "uint256",
          "name": "_ticketPrice",
          "type": "uint256"
        }
      ],
      "stateMutability": "nonpayable",
      "type": "constructor"
    },
    {
      "anonymous": false,
      "inputs": [
        {
          "indexed": false,
          "internalType": "address",
          "name": "winner",
          "type": "address"
        },
        {
          "indexed": false,
          "internalType": "uint256",
          "name": "prizeAmount",
          "type": "uint256"
        }
      ],
      "name": "RaffleEnded",
      "type": "event"
    },
    {
      "inputs": [],
      "name": "buyTicket",
      "outputs": [],
      "stateMutability": "payable",
      "type": "function"
    },
    {
      "inputs": [],
      "name": "getRaffleStatus",
      "outputs": [
        {
          "internalType": "uint256",
          "name": "",
          "type": "uint256"
        },
        {
          "internalType": "uint256",
          "name": "",
          "type": "uint256"
        },
        {
          "internalType": "bool",
          "name": "",
          "type": "bool"
        }
      ],
      "stateMutability": "view",
      "type": "function"
    },
    {
      "inputs": [],
      "name": "owner",
      "outputs": [
        {
          "internalType": "address",
          "name": "",
          "type": "address"
        }
      ],
      "stateMutability": "view",
      "type": "function"
    },
    {
      "inputs": [
        {
          "internalType": "uint256",
          "name": "",
          "type": "uint256"
        }
      ],
      "name": "participants",
      "outputs": [
        {
          "internalType": "address",
          "name": "",
          "type": "address"
        }
      ],
      "stateMutability": "view",
      "type": "function"
    },
    {
      "inputs": [],
      "name": "raffleEnded",
      "outputs": [
        {
          "internalType": "bool",
          "name": "",
          "type": "bool"
        }
      ],
      "stateMutability": "view",
      "type": "function"
    },
    {
      "inputs": [],
      "name": "soldTickets",
      "outputs": [
        {
          "internalType": "uint256",
          "name": "",
          "type": "uint256"
        }
      ],
      "stateMutability": "view",
      "type": "function"
    },
    {
      "inputs": [],
      "name": "ticketPrice",
      "outputs": [
        {
          "internalType": "uint256",
          "name": "",
          "type": "uint256"
        }
      ],
      "stateMutability": "view",
      "type": "function"
    },
    {
      "inputs": [],
      "name": "totalTickets",
      "outputs": [
        {
          "internalType": "uint256",
          "name": "",
          "type": "uint256"
        }
      ],
      "stateMutability": "view",
      "type": "function"
    }
  ],
  "bytecode": "0x608060405234801561001057600080fd5b50604051610e46380380610e46833981810160405281019061003291906100e5565b336000806101000a81548173ffffffffffffffffffffffffffffffffffffffff021916908373ffffffffffffffffffffffffffffffffffffffff160217905550816002819055508060018190555060006003819055506000600560006101000a81548160ff0219169083151502179055505050610125565b600080fd5b6000819050919050565b6100c2816100af565b81146100cd57600080fd5b50565b6000815190506100df816100b9565b92915050565b600080604083850312156100fc576100fb6100aa565b5b600061010a858286016100d0565b925050602061011b858286016100d0565b9150509250929050565b610d12806101346000396000f3fe60806040526004361061007b5760003560e01c8063a31aa84b1161004e578063a31aa84b1461013e578063dd11247e14610169578063dd8af4cf14610194578063edca914c146101c15761007b565b80631209b1f61461008057806335c1d349146100ab5780636b762daa146100e85780638da5cb5b14610113575b600080fd5b34801561008c57600080fd5b506100956101cb565b6040516100a2919061064f565b60405180910390f35b3480156100b757600080fd5b506100d260048036038101906100cd919061069b565b6101d1565b6040516100df9190610709565b60405180910390f35b3480156100f457600080fd5b506100fd610210565b60405161010a919061073f565b60405180910390f35b34801561011f57600080fd5b50610128610223565b6040516101359190610709565b60405180910390f35b34801561014a57600080fd5b50610153610247565b604051610160919061064f565b60405180910390f35b34801561017557600080fd5b5061017e61024d565b60405161018b919061064f565b60405180910390f35b3480156101a057600080fd5b506101a9610253565b6040516101b89392919061075a565b60405180910390f35b6101c9610279565b005b60015481565b600481815481106101e157600080fd5b906000526020600020016000915054906101000a900473ffffffffffffffffffffffffffffffffffffffff1681565b600560009054906101000a900460ff1681565b60008054906101000a900473ffffffffffffffffffffffffffffffffffffffff1681565b60035481565b60025481565b6000806000600354600254600560009054906101000a900460ff16925092509250909192565b600560009054906101000a900460ff16156102c9576040517f08c379a00000000000000000000000000000000000000000000000000000000081526004016102c0906107ee565b60405180910390fd5b6002546003541061030f576040517f08c379a00000000000000000000000000000000000000000000000000000000081526004016103069061085a565b60405180910390fd5b6001543414610353576040517f08c379a000000000000000000000000000000000000000000000000000000000815260040161034a906108c6565b60405180910390fd5b6004339080600181540180825580915050600190039060005260206000200160009091909190916101000a81548173ffffffffffffffffffffffffffffffffffffffff021916908373ffffffffffffffffffffffffffffffffffffffff160217905550600360008154809291906103c990610915565b9190505550600254600354036103e2576103e16103e4565b5b565b6002546003541461042a576040517f08c379a0000000000000000000000000000000000000000000000000000000008152600401610421906109a9565b60405180910390fd5b60006104346105d0565b905060006004828154811061044c5761044b6109c9565b5b9060005260206000200160009054906101000a900473ffffffffffffffffffffffffffffffffffffffff169050600060015460025461048b91906109f8565b90506000606460508361049e91906109f8565b6104a89190610a69565b9050600060646014846104bb91906109f8565b6104c59190610a69565b90508373ffffffffffffffffffffffffffffffffffffffff166108fc839081150290604051600060405180830381858888f1935050505015801561050d573d6000803e3d6000fd5b5060008054906101000a900473ffffffffffffffffffffffffffffffffffffffff1673ffffffffffffffffffffffffffffffffffffffff166108fc829081150290604051600060405180830381858888f19350505050158015610574573d6000803e3d6000fd5b506001600560006101000a81548160ff0219169083151502179055507fb759574c0dac2da3f8ab8dba50cbc5f71203d9acddf839bd97e9247c8efc4e8684836040516105c1929190610a9a565b60405180910390a15050505050565b6000806001436105e09190610ac3565b409050600081424460046040516020016105fd9493929190610c61565b6040516020818303038152906040528051906020012060001c905060006004805490508261062b9190610cab565b905080935050505090565b6000819050919050565b61064981610636565b82525050565b60006020820190506106646000830184610640565b92915050565b600080fd5b61067881610636565b811461068357600080fd5b50565b6000813590506106958161066f565b92915050565b6000602082840312156106b1576106b061066a565b5b60006106bf84828501610686565b91505092915050565b600073ffffffffffffffffffffffffffffffffffffffff82169050919050565b60006106f3826106c8565b9050919050565b610703816106e8565b82525050565b600060208201905061071e60008301846106fa565b92915050565b60008115159050919050565b61073981610724565b82525050565b60006020820190506107546000830184610730565b92915050565b600060608201905061076f6000830186610640565b61077c6020830185610640565b6107896040830184610730565b949350505050565b600082825260208201905092915050565b7f52696661207465726d696e6f7500000000000000000000000000000000000000600082015250565b60006107d8600d83610791565b91506107e3826107a2565b602082019050919050565b60006020820190508181036000830152610807816107cb565b9050919050565b7f546f646f73206f732062696c686574657320666f72616d2076656e6469646f73600082015250565b6000610844602083610791565b915061084f8261080e565b602082019050919050565b6000602082019050818103600083015261087381610837565b9050919050565b7f56616c6f7220696e636f727265746f2070617261206f2062696c686574650000600082015250565b60006108b0601e83610791565b91506108bb8261087a565b602082019050919050565b600060208201905081810360008301526108df816108a3565b9050919050565b7f4e487b7100000000000000000000000000000000000000000000000000000000600052601160045260246000fd5b600061092082610636565b91507fffffffffffffffffffffffffffffffffffffffffffffffffffffffffffffffff8203610952576109516108e6565b5b600182019050919050565b7f52696661206e616f207465726d696e6f75000000000000000000000000000000600082015250565b6000610993601183610791565b915061099e8261095d565b602082019050919050565b600060208201905081810360008301526109c281610986565b9050919050565b7f4e487b7100000000000000000000000000000000000000000000000000000000600052603260045260246000fd5b6000610a0382610636565b9150610a0e83610636565b9250828202610a1c81610636565b91508282048414831517610a3357610a326108e6565b5b5092915050565b7f4e487b7100000000000000000000000000000000000000000000000000000000600052601260045260246000fd5b6000610a7482610636565b9150610a7f83610636565b925082610a8f57610a8e610a3a565b5b828204905092915050565b6000604082019050610aaf60008301856106fa565b610abc6020830184610640565b9392505050565b6000610ace82610636565b9150610ad983610636565b9250828203905081811115610af157610af06108e6565b5b92915050565b6000819050919050565b6000819050919050565b610b1c610b1782610af7565b610b01565b82525050565b6000819050919050565b610b3d610b3882610636565b610b22565b82525050565b600081549050919050565b600081905092915050565b60008190508160005260206000209050919050565b610b77816106e8565b82525050565b6000610b898383610b6e565b60208301905092915050565b60008160001c9050919050565b600073ffffffffffffffffffffffffffffffffffffffff82169050919050565b6000610bd5610bd083610b95565b610ba2565b9050919050565b6000610be88254610bc2565b9050919050565b6000600182019050919050565b6000610c0782610b43565b610c118185610b4e565b9350610c1c83610b59565b8060005b83811015610c5457610c3182610bdc565b610c3b8882610b7d565b9750610c4683610bef565b925050600181019050610c20565b5085935050505092915050565b6000610c6d8287610b0b565b602082019150610c7d8286610b2c565b602082019150610c8d8285610b2c565b602082019150610c9d8284610bfc565b915081905095945050505050565b6000610cb682610636565b9150610cc183610636565b925082610cd157610cd0610a3a565b5b82820690509291505056fea264697066735822122015be44e2638aabd027c852f3f5445c622f4c642c77b5b35ce720af963009a33c64736f6c634300081c0033",
  "linkReferences": {},
  "deployedLinkReferences": {}
}