{
  "_format": "hh-sol-artifact-1",
  "contractName": "Rifa",
  "sourceName": "contracts/main.sol",
  "abi": [
    {
      "inputs": [
        {
          "internalType": "uint256",
          "name": "_totalTickets",
          "type": "uint256"
        },
        {
          "internalType": "uint256",
          "name": "_ticketPrice",
          "type": "uint256"
        }
      ],
      "stateMutability": "nonpayable",
      "type": "constructor"
    },
    {
      "anonymous": false,
      "inputs": [
        {
          "indexed": false,
          "internalType": "address",
          "name": "winner",
          "type": "address"
        },
        {
          "indexed": false,
          "internalType": "uint256",
          "name": "prizeAmount",
          "type": "uint256"
        }
      ],
      "name": "RaffleEnded",
      "type": "event"
    },
    {
      "anonymous": false,
      "inputs": [
        {
          "indexed": false,
          "internalType": "address",
          "name": "buyer",
          "type": "address"
        },
        {
          "indexed": false,
          "internalType": "uint256[]",
          "name": "ticketNumbers",
          "type": "uint256[]"
        }
      ],
      "name": "TicketsBought",
      "type": "event"
    },
    {
      "inputs": [
        {
          "internalType": "uint256[]",
          "name": "_ticketNumbers",
          "type": "uint256[]"
        }
      ],
      "name": "buyTickets",
      "outputs": [],
      "stateMutability": "payable",
      "type": "function"
    },
    {
      "inputs": [],
      "name": "getSoldTickets",
      "outputs": [
        {
          "internalType": "uint256[]",
          "name": "",
          "type": "uint256[]"
        }
      ],
      "stateMutability": "view",
      "type": "function"
    },
    {
      "inputs": [
        {
          "internalType": "address",
          "name": "",
          "type": "address"
        }
      ],
      "name": "hasParticipated",
      "outputs": [
        {
          "internalType": "bool",
          "name": "",
          "type": "bool"
        }
      ],
      "stateMutability": "view",
      "type": "function"
    },
    {
      "inputs": [
        {
          "internalType": "uint256",
          "name": "",
          "type": "uint256"
        }
      ],
      "name": "isTicketSold",
      "outputs": [
        {
          "internalType": "bool",
          "name": "",
          "type": "bool"
        }
      ],
      "stateMutability": "view",
      "type": "function"
    },
    {
      "inputs": [],
      "name": "owner",
      "outputs": [
        {
          "internalType": "address",
          "name": "",
          "type": "address"
        }
      ],
      "stateMutability": "view",
      "type": "function"
    },
    {
      "inputs": [
        {
          "internalType": "uint256",
          "name": "",
          "type": "uint256"
        }
      ],
      "name": "participants",
      "outputs": [
        {
          "internalType": "address",
          "name": "",
          "type": "address"
        }
      ],
      "stateMutability": "view",
      "type": "function"
    },
    {
      "inputs": [],
      "name": "raffleEnded",
      "outputs": [
        {
          "internalType": "bool",
          "name": "",
          "type": "bool"
        }
      ],
      "stateMutability": "view",
      "type": "function"
    },
    {
      "inputs": [],
      "name": "soldTickets",
      "outputs": [
        {
          "internalType": "uint256",
          "name": "",
          "type": "uint256"
        }
      ],
      "stateMutability": "view",
      "type": "function"
    },
    {
      "inputs": [
        {
          "internalType": "uint256",
          "name": "",
          "type": "uint256"
        }
      ],
      "name": "ticketOwner",
      "outputs": [
        {
          "internalType": "address",
          "name": "",
          "type": "address"
        }
      ],
      "stateMutability": "view",
      "type": "function"
    },
    {
      "inputs": [],
      "name": "ticketPrice",
      "outputs": [
        {
          "internalType": "uint256",
          "name": "",
          "type": "uint256"
        }
      ],
      "stateMutability": "view",
      "type": "function"
    },
    {
      "inputs": [],
      "name": "totalTickets",
      "outputs": [
        {
          "internalType": "uint256",
          "name": "",
          "type": "uint256"
        }
      ],
      "stateMutability": "view",
      "type": "function"
    }
  ],
  "bytecode": "0x608060405234801561001057600080fd5b506040516117d13803806117d1833981810160405281019061003291906100e5565b336000806101000a81548173ffffffffffffffffffffffffffffffffffffffff021916908373ffffffffffffffffffffffffffffffffffffffff160217905550816002819055508060018190555060006003819055506000600460006101000a81548160ff0219169083151502179055505050610125565b600080fd5b6000819050919050565b6100c2816100af565b81146100cd57600080fd5b50565b6000815190506100df816100b9565b92915050565b600080604083850312156100fc576100fb6100aa565b5b600061010a858286016100d0565b925050602061011b858286016100d0565b9150509250929050565b61169d806101346000396000f3fe60806040526004361061009c5760003560e01c80638da5cb5b116100645780638da5cb5b1461019c578063a31aa84b146101c7578063b4fb3ee3146101f2578063c2ff12fc1461022f578063d0fbe7fe1461026c578063dd11247e146102885761009c565b80631209b1f6146100a15780631fdbbd8f146100cc5780632aa51bdf1461010957806335c1d349146101345780636b762daa14610171575b600080fd5b3480156100ad57600080fd5b506100b66102b3565b6040516100c39190610b29565b60405180910390f35b3480156100d857600080fd5b506100f360048036038101906100ee9190610b84565b6102b9565b6040516101009190610bcc565b60405180910390f35b34801561011557600080fd5b5061011e6102d9565b60405161012b9190610ca5565b60405180910390f35b34801561014057600080fd5b5061015b60048036038101906101569190610b84565b6103ac565b6040516101689190610d08565b60405180910390f35b34801561017d57600080fd5b506101866103eb565b6040516101939190610bcc565b60405180910390f35b3480156101a857600080fd5b506101b16103fe565b6040516101be9190610d08565b60405180910390f35b3480156101d357600080fd5b506101dc610422565b6040516101e99190610b29565b60405180910390f35b3480156101fe57600080fd5b5061021960048036038101906102149190610d4f565b610428565b6040516102269190610bcc565b60405180910390f35b34801561023b57600080fd5b5061025660048036038101906102519190610b84565b610448565b6040516102639190610d08565b60405180910390f35b61028660048036038101906102819190610ed5565b61047b565b005b34801561029457600080fd5b5061029d610895565b6040516102aa9190610b29565b60405180910390f35b60015481565b60066020528060005260406000206000915054906101000a900460ff1681565b6060600060035467ffffffffffffffff8111156102f9576102f8610d92565b5b6040519080825280602002602001820160405280156103275781602001602082028036833780820191505090505b509050600080600190505b60025481116103a3576006600082815260200190815260200160002060009054906101000a900460ff1615610390578083838151811061037557610374610f1e565b5b602002602001018181525050818061038c90610f7c565b9250505b808061039b90610f7c565b915050610332565b50819250505090565b600881815481106103bc57600080fd5b906000526020600020016000915054906101000a900473ffffffffffffffffffffffffffffffffffffffff1681565b600460009054906101000a900460ff1681565b60008054906101000a900473ffffffffffffffffffffffffffffffffffffffff1681565b60035481565b60076020528060005260406000206000915054906101000a900460ff1681565b60056020528060005260406000206000915054906101000a900473ffffffffffffffffffffffffffffffffffffffff1681565b600460009054906101000a900460ff16156104cb576040517f08c379a00000000000000000000000000000000000000000000000000000000081526004016104c290611021565b60405180910390fd5b60008151905060008111610514576040517f08c379a000000000000000000000000000000000000000000000000000000000815260040161050b906110b3565b60405180910390fd5b6002548160035461052591906110d3565b1115610566576040517f08c379a000000000000000000000000000000000000000000000000000000000815260040161055d90611153565b60405180910390fd5b806001546105749190611173565b34146105b5576040517f08c379a00000000000000000000000000000000000000000000000000000000081526004016105ac90611201565b60405180910390fd5b60005b8181101561071d5760008382815181106105d5576105d4610f1e565b5b602002602001015190506000811180156105f157506002548111155b610630576040517f08c379a00000000000000000000000000000000000000000000000000000000081526004016106279061126d565b60405180910390fd5b6006600082815260200190815260200160002060009054906101000a900460ff1615610691576040517f08c379a0000000000000000000000000000000000000000000000000000000008152600401610688906112d9565b60405180910390fd5b60016006600083815260200190815260200160002060006101000a81548160ff021916908315150217905550336005600083815260200190815260200160002060006101000a81548173ffffffffffffffffffffffffffffffffffffffff021916908373ffffffffffffffffffffffffffffffffffffffff1602179055505080806001019150506105b8565b50600760003373ffffffffffffffffffffffffffffffffffffffff1673ffffffffffffffffffffffffffffffffffffffff16815260200190815260200160002060009054906101000a900460ff1661082b576008339080600181540180825580915050600190039060005260206000200160009091909190916101000a81548173ffffffffffffffffffffffffffffffffffffffff021916908373ffffffffffffffffffffffffffffffffffffffff1602179055506001600760003373ffffffffffffffffffffffffffffffffffffffff1673ffffffffffffffffffffffffffffffffffffffff16815260200190815260200160002060006101000a81548160ff0219169083151502179055505b806003600082825461083d91906110d3565b925050819055507f662726b7f4c0953ab222a36b21fd385ed6664115d4533e70a90df9c1cc3f0c6a33836040516108759291906112f9565b60405180910390a1600254600354036108915761089061089b565b5b5050565b60025481565b600460009054906101000a900460ff16156108eb576040517f08c379a00000000000000000000000000000000000000000000000000000000081526004016108e290611375565b60405180910390fd5b60025460035414610931576040517f08c379a0000000000000000000000000000000000000000000000000000000008152600401610928906113e1565b60405180910390fd5b600061093b610aca565b905060006008828154811061095357610952610f1e565b5b9060005260206000200160009054906101000a900473ffffffffffffffffffffffffffffffffffffffff16905060006001546002546109929190611173565b9050600060646050836109a59190611173565b6109af9190611430565b9050600081836109bf9190611461565b90508373ffffffffffffffffffffffffffffffffffffffff166108fc839081150290604051600060405180830381858888f19350505050158015610a07573d6000803e3d6000fd5b5060008054906101000a900473ffffffffffffffffffffffffffffffffffffffff1673ffffffffffffffffffffffffffffffffffffffff166108fc829081150290604051600060405180830381858888f19350505050158015610a6e573d6000803e3d6000fd5b506001600460006101000a81548160ff0219169083151502179055507fb759574c0dac2da3f8ab8dba50cbc5f71203d9acddf839bd97e9247c8efc4e868483604051610abb929190611495565b60405180910390a15050505050565b600060088054905042446008604051602001610ae8939291906115fd565b6040516020818303038152906040528051906020012060001c610b0b9190611636565b905090565b6000819050919050565b610b2381610b10565b82525050565b6000602082019050610b3e6000830184610b1a565b92915050565b6000604051905090565b600080fd5b600080fd5b610b6181610b10565b8114610b6c57600080fd5b50565b600081359050610b7e81610b58565b92915050565b600060208284031215610b9a57610b99610b4e565b5b6000610ba884828501610b6f565b91505092915050565b60008115159050919050565b610bc681610bb1565b82525050565b6000602082019050610be16000830184610bbd565b92915050565b600081519050919050565b600082825260208201905092915050565b6000819050602082019050919050565b610c1c81610b10565b82525050565b6000610c2e8383610c13565b60208301905092915050565b6000602082019050919050565b6000610c5282610be7565b610c5c8185610bf2565b9350610c6783610c03565b8060005b83811015610c98578151610c7f8882610c22565b9750610c8a83610c3a565b925050600181019050610c6b565b5085935050505092915050565b60006020820190508181036000830152610cbf8184610c47565b905092915050565b600073ffffffffffffffffffffffffffffffffffffffff82169050919050565b6000610cf282610cc7565b9050919050565b610d0281610ce7565b82525050565b6000602082019050610d1d6000830184610cf9565b92915050565b610d2c81610ce7565b8114610d3757600080fd5b50565b600081359050610d4981610d23565b92915050565b600060208284031215610d6557610d64610b4e565b5b6000610d7384828501610d3a565b91505092915050565b600080fd5b6000601f19601f8301169050919050565b7f4e487b7100000000000000000000000000000000000000000000000000000000600052604160045260246000fd5b610dca82610d81565b810181811067ffffffffffffffff82111715610de957610de8610d92565b5b80604052505050565b6000610dfc610b44565b9050610e088282610dc1565b919050565b600067ffffffffffffffff821115610e2857610e27610d92565b5b602082029050602081019050919050565b600080fd5b6000610e51610e4c84610e0d565b610df2565b90508083825260208201905060208402830185811115610e7457610e73610e39565b5b835b81811015610e9d5780610e898882610b6f565b845260208401935050602081019050610e76565b5050509392505050565b600082601f830112610ebc57610ebb610d7c565b5b8135610ecc848260208601610e3e565b91505092915050565b600060208284031215610eeb57610eea610b4e565b5b600082013567ffffffffffffffff811115610f0957610f08610b53565b5b610f1584828501610ea7565b91505092915050565b7f4e487b7100000000000000000000000000000000000000000000000000000000600052603260045260246000fd5b7f4e487b7100000000000000000000000000000000000000000000000000000000600052601160045260246000fd5b6000610f8782610b10565b91507fffffffffffffffffffffffffffffffffffffffffffffffffffffffffffffffff8203610fb957610fb8610f4d565b5b600182019050919050565b600082825260208201905092915050565b7f52696661207465726d696e6f752e2e2e00000000000000000000000000000000600082015250565b600061100b601083610fc4565b915061101682610fd5565b602082019050919050565b6000602082019050818103600083015261103a81610ffe565b9050919050565b7f5072656369736120636f6d707261722070656c6f206d656e6f7320312062696c60008201527f6865746500000000000000000000000000000000000000000000000000000000602082015250565b600061109d602483610fc4565b91506110a882611041565b604082019050919050565b600060208201905081810360008301526110cc81611090565b9050919050565b60006110de82610b10565b91506110e983610b10565b925082820190508082111561110157611100610f4d565b5b92915050565b7f4e616f2068612062696c686574657320737566696369656e7465732e2e2e0000600082015250565b600061113d601e83610fc4565b915061114882611107565b602082019050919050565b6000602082019050818103600083015261116c81611130565b9050919050565b600061117e82610b10565b915061118983610b10565b925082820261119781610b10565b915082820484148315176111ae576111ad610f4d565b5b5092915050565b7f56616c6f7220696e636f727265746f2070617261206f732062696c6865746573600082015250565b60006111eb602083610fc4565b91506111f6826111b5565b602082019050919050565b6000602082019050818103600083015261121a816111de565b9050919050565b7f4e756d65726f2064652062696c6865746520696e76616c69646f000000000000600082015250565b6000611257601a83610fc4565b915061126282611221565b602082019050919050565b600060208201905081810360008301526112868161124a565b9050919050565b7f42696c68657465206a612076656e6469646f0000000000000000000000000000600082015250565b60006112c3601283610fc4565b91506112ce8261128d565b602082019050919050565b600060208201905081810360008301526112f2816112b6565b9050919050565b600060408201905061130e6000830185610cf9565b81810360208301526113208184610c47565b90509392505050565b7f52696661206a612066696e616c697a6164610000000000000000000000000000600082015250565b600061135f601283610fc4565b915061136a82611329565b602082019050919050565b6000602082019050818103600083015261138e81611352565b9050919050565b7f526966612061696e646120656d20616e64616d656e746f000000000000000000600082015250565b60006113cb601783610fc4565b91506113d682611395565b602082019050919050565b600060208201905081810360008301526113fa816113be565b9050919050565b7f4e487b7100000000000000000000000000000000000000000000000000000000600052601260045260246000fd5b600061143b82610b10565b915061144683610b10565b92508261145657611455611401565b5b828204905092915050565b600061146c82610b10565b915061147783610b10565b925082820390508181111561148f5761148e610f4d565b5b92915050565b60006040820190506114aa6000830185610cf9565b6114b76020830184610b1a565b9392505050565b6000819050919050565b6114d96114d482610b10565b6114be565b82525050565b600081549050919050565b600081905092915050565b60008190508160005260206000209050919050565b61151381610ce7565b82525050565b6000611525838361150a565b60208301905092915050565b60008160001c9050919050565b600073ffffffffffffffffffffffffffffffffffffffff82169050919050565b600061157161156c83611531565b61153e565b9050919050565b6000611584825461155e565b9050919050565b6000600182019050919050565b60006115a3826114df565b6115ad81856114ea565b93506115b8836114f5565b8060005b838110156115f0576115cd82611578565b6115d78882611519565b97506115e28361158b565b9250506001810190506115bc565b5085935050505092915050565b600061160982866114c8565b60208201915061161982856114c8565b6020820191506116298284611598565b9150819050949350505050565b600061164182610b10565b915061164c83610b10565b92508261165c5761165b611401565b5b82820690509291505056fea264697066735822122079a9691c2e9202c77928ef96271d71d42932781e7750a695825f6d5943f9367964736f6c634300081c0033",
  "linkReferences": {},
  "deployedLinkReferences": {}
}