{
  "_format": "hh-sol-artifact-1",
  "contractName": "Rifa",
  "sourceName": "contracts/main.sol",
  "abi": [
    {
      "inputs": [
        {
          "internalType": "uint256",
          "name": "_totalTickets",
          "type": "uint256"
        },
        {
          "internalType": "uint256",
          "name": "_ticketPrice",
          "type": "uint256"
        }
      ],
      "stateMutability": "nonpayable",
      "type": "constructor"
    },
    {
      "anonymous": false,
      "inputs": [
        {
          "indexed": false,
          "internalType": "address",
          "name": "winner",
          "type": "address"
        },
        {
          "indexed": false,
          "internalType": "uint256",
          "name": "prizeAmount",
          "type": "uint256"
        }
      ],
      "name": "RaffleEnded",
      "type": "event"
    },
    {
      "inputs": [
        {
          "internalType": "uint256[]",
          "name": "_ticketNumbers",
          "type": "uint256[]"
        }
      ],
      "name": "buyTicket",
      "outputs": [],
      "stateMutability": "payable",
      "type": "function"
    },
    {
      "inputs": [],
      "name": "getRaffleStatus",
      "outputs": [
        {
          "internalType": "uint256",
          "name": "",
          "type": "uint256"
        },
        {
          "internalType": "uint256",
          "name": "",
          "type": "uint256"
        },
        {
          "internalType": "bool",
          "name": "",
          "type": "bool"
        }
      ],
      "stateMutability": "view",
      "type": "function"
    },
    {
      "inputs": [
        {
          "internalType": "uint256",
          "name": "",
          "type": "uint256"
        }
      ],
      "name": "isTicketSold",
      "outputs": [
        {
          "internalType": "bool",
          "name": "",
          "type": "bool"
        }
      ],
      "stateMutability": "view",
      "type": "function"
    },
    {
      "inputs": [],
      "name": "owner",
      "outputs": [
        {
          "internalType": "address",
          "name": "",
          "type": "address"
        }
      ],
      "stateMutability": "view",
      "type": "function"
    },
    {
      "inputs": [
        {
          "internalType": "uint256",
          "name": "",
          "type": "uint256"
        }
      ],
      "name": "participants",
      "outputs": [
        {
          "internalType": "address",
          "name": "",
          "type": "address"
        }
      ],
      "stateMutability": "view",
      "type": "function"
    },
    {
      "inputs": [],
      "name": "raffleEnded",
      "outputs": [
        {
          "internalType": "bool",
          "name": "",
          "type": "bool"
        }
      ],
      "stateMutability": "view",
      "type": "function"
    },
    {
      "inputs": [],
      "name": "soldTickets",
      "outputs": [
        {
          "internalType": "uint256",
          "name": "",
          "type": "uint256"
        }
      ],
      "stateMutability": "view",
      "type": "function"
    },
    {
      "inputs": [],
      "name": "ticketPrice",
      "outputs": [
        {
          "internalType": "uint256",
          "name": "",
          "type": "uint256"
        }
      ],
      "stateMutability": "view",
      "type": "function"
    },
    {
      "inputs": [],
      "name": "totalTickets",
      "outputs": [
        {
          "internalType": "uint256",
          "name": "",
          "type": "uint256"
        }
      ],
      "stateMutability": "view",
      "type": "function"
    },
    {
      "inputs": [],
      "name": "winningNumber",
      "outputs": [
        {
          "internalType": "uint256",
          "name": "",
          "type": "uint256"
        }
      ],
      "stateMutability": "view",
      "type": "function"
    }
  ],
  "bytecode": "0x608060405234801561001057600080fd5b506040516113c13803806113c1833981810160405281019061003291906100e5565b336000806101000a81548173ffffffffffffffffffffffffffffffffffffffff021916908373ffffffffffffffffffffffffffffffffffffffff160217905550816002819055508060018190555060006003819055506000600560006101000a81548160ff0219169083151502179055505050610125565b600080fd5b6000819050919050565b6100c2816100af565b81146100cd57600080fd5b50565b6000815190506100df816100b9565b92915050565b600080604083850312156100fc576100fb6100aa565b5b600061010a858286016100d0565b925050602061011b858286016100d0565b9150509250929050565b61128d806101346000396000f3fe6080604052600436106100915760003560e01c8063716cac9611610059578063716cac96146101915780638da5cb5b146101ad578063a31aa84b146101d8578063dd11247e14610203578063dd8af4cf1461022e57610091565b80631209b1f6146100965780631fdbbd8f146100c157806335c1d349146100fe5780634664611e1461013b5780636b762daa14610166575b600080fd5b3480156100a257600080fd5b506100ab61025b565b6040516100b8919061087b565b60405180910390f35b3480156100cd57600080fd5b506100e860048036038101906100e391906108d6565b610261565b6040516100f5919061091e565b60405180910390f35b34801561010a57600080fd5b50610125600480360381019061012091906108d6565b610281565b604051610132919061097a565b60405180910390f35b34801561014757600080fd5b506101506102c0565b60405161015d919061087b565b60405180910390f35b34801561017257600080fd5b5061017b6102c6565b604051610188919061091e565b60405180910390f35b6101ab60048036038101906101a69190610aee565b6102d9565b005b3480156101b957600080fd5b506101c26105ba565b6040516101cf919061097a565b60405180910390f35b3480156101e457600080fd5b506101ed6105de565b6040516101fa919061087b565b60405180910390f35b34801561020f57600080fd5b506102186105e4565b604051610225919061087b565b60405180910390f35b34801561023a57600080fd5b506102436105ea565b60405161025293929190610b37565b60405180910390f35b60015481565b60066020528060005260406000206000915054906101000a900460ff1681565b6004818154811061029157600080fd5b906000526020600020016000915054906101000a900473ffffffffffffffffffffffffffffffffffffffff1681565b60075481565b600560009054906101000a900460ff1681565b600560009054906101000a900460ff1615610329576040517f08c379a000000000000000000000000000000000000000000000000000000000815260040161032090610bcb565b60405180910390fd5b600081511161036d576040517f08c379a000000000000000000000000000000000000000000000000000000000815260040161036490610c5d565b60405180910390fd5b600254815160035461037f9190610cac565b11156103c0576040517f08c379a00000000000000000000000000000000000000000000000000000000081526004016103b790610d2c565b60405180910390fd5b80516001546103cf9190610d4c565b3414610410576040517f08c379a000000000000000000000000000000000000000000000000000000000815260040161040790610dda565b60405180910390fd5b60005b81518110156105a257600082828151811061043157610430610dfa565b5b6020026020010151905060008111801561044d57506002548111155b61048c576040517f08c379a000000000000000000000000000000000000000000000000000000000815260040161048390610e75565b60405180910390fd5b6006600082815260200190815260200160002060009054906101000a900460ff16156104ed576040517f08c379a00000000000000000000000000000000000000000000000000000000081526004016104e490610ee1565b60405180910390fd5b60016006600083815260200190815260200160002060006101000a81548160ff0219169083151502179055506004339080600181540180825580915050600190039060005260206000200160009091909190916101000a81548173ffffffffffffffffffffffffffffffffffffffff021916908373ffffffffffffffffffffffffffffffffffffffff1602179055506003600081548092919061058f90610f01565b9190505550508080600101915050610413565b50600254600354036105b7576105b6610610565b5b50565b60008054906101000a900473ffffffffffffffffffffffffffffffffffffffff1681565b60035481565b60025481565b6000806000600354600254600560009054906101000a900460ff16925092509250909192565b60025460035414610656576040517f08c379a000000000000000000000000000000000000000000000000000000000815260040161064d90610f95565b60405180910390fd5b60006106606107fc565b905060006004828154811061067857610677610dfa565b5b9060005260206000200160009054906101000a900473ffffffffffffffffffffffffffffffffffffffff16905060006001546002546106b79190610d4c565b9050600060646050836106ca9190610d4c565b6106d49190610fe4565b9050600060646014846106e79190610d4c565b6106f19190610fe4565b90508373ffffffffffffffffffffffffffffffffffffffff166108fc839081150290604051600060405180830381858888f19350505050158015610739573d6000803e3d6000fd5b5060008054906101000a900473ffffffffffffffffffffffffffffffffffffffff1673ffffffffffffffffffffffffffffffffffffffff166108fc829081150290604051600060405180830381858888f193505050501580156107a0573d6000803e3d6000fd5b506001600560006101000a81548160ff0219169083151502179055507fb759574c0dac2da3f8ab8dba50cbc5f71203d9acddf839bd97e9247c8efc4e8684836040516107ed929190611015565b60405180910390a15050505050565b60008060014361080c919061103e565b4090506000814244600460405160200161082994939291906111dc565b6040516020818303038152906040528051906020012060001c90506000600480549050826108579190611226565b905080935050505090565b6000819050919050565b61087581610862565b82525050565b6000602082019050610890600083018461086c565b92915050565b6000604051905090565b600080fd5b600080fd5b6108b381610862565b81146108be57600080fd5b50565b6000813590506108d0816108aa565b92915050565b6000602082840312156108ec576108eb6108a0565b5b60006108fa848285016108c1565b91505092915050565b60008115159050919050565b61091881610903565b82525050565b6000602082019050610933600083018461090f565b92915050565b600073ffffffffffffffffffffffffffffffffffffffff82169050919050565b600061096482610939565b9050919050565b61097481610959565b82525050565b600060208201905061098f600083018461096b565b92915050565b600080fd5b6000601f19601f8301169050919050565b7f4e487b7100000000000000000000000000000000000000000000000000000000600052604160045260246000fd5b6109e38261099a565b810181811067ffffffffffffffff82111715610a0257610a016109ab565b5b80604052505050565b6000610a15610896565b9050610a2182826109da565b919050565b600067ffffffffffffffff821115610a4157610a406109ab565b5b602082029050602081019050919050565b600080fd5b6000610a6a610a6584610a26565b610a0b565b90508083825260208201905060208402830185811115610a8d57610a8c610a52565b5b835b81811015610ab65780610aa288826108c1565b845260208401935050602081019050610a8f565b5050509392505050565b600082601f830112610ad557610ad4610995565b5b8135610ae5848260208601610a57565b91505092915050565b600060208284031215610b0457610b036108a0565b5b600082013567ffffffffffffffff811115610b2257610b216108a5565b5b610b2e84828501610ac0565b91505092915050565b6000606082019050610b4c600083018661086c565b610b59602083018561086c565b610b66604083018461090f565b949350505050565b600082825260208201905092915050565b7f52696661207465726d696e6f752e2e2e00000000000000000000000000000000600082015250565b6000610bb5601083610b6e565b9150610bc082610b7f565b602082019050919050565b60006020820190508181036000830152610be481610ba8565b9050919050565b7f5072656369736120636f6d707261722070656c6f206d656e6f7320312062696c60008201527f6865746521000000000000000000000000000000000000000000000000000000602082015250565b6000610c47602583610b6e565b9150610c5282610beb565b604082019050919050565b60006020820190508181036000830152610c7681610c3a565b9050919050565b7f4e487b7100000000000000000000000000000000000000000000000000000000600052601160045260246000fd5b6000610cb782610862565b9150610cc283610862565b9250828201905080821115610cda57610cd9610c7d565b5b92915050565b7f4e616f2068612062696c686574657320737566696369656e7465732e2e2e0000600082015250565b6000610d16601e83610b6e565b9150610d2182610ce0565b602082019050919050565b60006020820190508181036000830152610d4581610d09565b9050919050565b6000610d5782610862565b9150610d6283610862565b9250828202610d7081610862565b91508282048414831517610d8757610d86610c7d565b5b5092915050565b7f56616c6f7220696e636f727265746f2070617261206f732062696c6865746573600082015250565b6000610dc4602083610b6e565b9150610dcf82610d8e565b602082019050919050565b60006020820190508181036000830152610df381610db7565b9050919050565b7f4e487b7100000000000000000000000000000000000000000000000000000000600052603260045260246000fd5b7f4e756d65726f2064652062696c6865746520696e76616c69646f000000000000600082015250565b6000610e5f601a83610b6e565b9150610e6a82610e29565b602082019050919050565b60006020820190508181036000830152610e8e81610e52565b9050919050565b7f42696c68657465206a612076656e6469646f2100000000000000000000000000600082015250565b6000610ecb601383610b6e565b9150610ed682610e95565b602082019050919050565b60006020820190508181036000830152610efa81610ebe565b9050919050565b6000610f0c82610862565b91507fffffffffffffffffffffffffffffffffffffffffffffffffffffffffffffffff8203610f3e57610f3d610c7d565b5b600182019050919050565b7f52696661206e616f207465726d696e6f75000000000000000000000000000000600082015250565b6000610f7f601183610b6e565b9150610f8a82610f49565b602082019050919050565b60006020820190508181036000830152610fae81610f72565b9050919050565b7f4e487b7100000000000000000000000000000000000000000000000000000000600052601260045260246000fd5b6000610fef82610862565b9150610ffa83610862565b92508261100a57611009610fb5565b5b828204905092915050565b600060408201905061102a600083018561096b565b611037602083018461086c565b9392505050565b600061104982610862565b915061105483610862565b925082820390508181111561106c5761106b610c7d565b5b92915050565b6000819050919050565b6000819050919050565b61109761109282611072565b61107c565b82525050565b6000819050919050565b6110b86110b382610862565b61109d565b82525050565b600081549050919050565b600081905092915050565b60008190508160005260206000209050919050565b6110f281610959565b82525050565b600061110483836110e9565b60208301905092915050565b60008160001c9050919050565b600073ffffffffffffffffffffffffffffffffffffffff82169050919050565b600061115061114b83611110565b61111d565b9050919050565b6000611163825461113d565b9050919050565b6000600182019050919050565b6000611182826110be565b61118c81856110c9565b9350611197836110d4565b8060005b838110156111cf576111ac82611157565b6111b688826110f8565b97506111c18361116a565b92505060018101905061119b565b5085935050505092915050565b60006111e88287611086565b6020820191506111f882866110a7565b60208201915061120882856110a7565b6020820191506112188284611177565b915081905095945050505050565b600061123182610862565b915061123c83610862565b92508261124c5761124b610fb5565b5b82820690509291505056fea26469706673582212200d5536af91a3d3027b5a753a020781d354a2943a936443393d62044ed1657de764736f6c634300081c0033",
  "linkReferences": {},
  "deployedLinkReferences": {}
}