{
  "_format": "hh-sol-artifact-1",
  "contractName": "Rifa",
  "sourceName": "contracts/main.sol",
  "abi": [
    {
      "anonymous": false,
      "inputs": [
        {
          "indexed": false,
          "internalType": "uint256",
          "name": "rifaId",
          "type": "uint256"
        },
        {
          "indexed": false,
          "internalType": "address",
          "name": "winner",
          "type": "address"
        },
        {
          "indexed": false,
          "internalType": "uint256",
          "name": "ticketNumber",
          "type": "uint256"
        },
        {
          "indexed": false,
          "internalType": "uint256",
          "name": "prizeAmount",
          "type": "uint256"
        }
      ],
      "name": "RaffleEnded",
      "type": "event"
    },
    {
      "anonymous": false,
      "inputs": [
        {
          "indexed": false,
          "internalType": "uint256",
          "name": "rifaId",
          "type": "uint256"
        },
        {
          "indexed": false,
          "internalType": "string",
          "name": "name",
          "type": "string"
        },
        {
          "indexed": false,
          "internalType": "address",
          "name": "owner",
          "type": "address"
        },
        {
          "indexed": false,
          "internalType": "uint256",
          "name": "totalTickets",
          "type": "uint256"
        },
        {
          "indexed": false,
          "internalType": "uint256",
          "name": "ticketPrice",
          "type": "uint256"
        }
      ],
      "name": "RifaCreated",
      "type": "event"
    },
    {
      "anonymous": false,
      "inputs": [
        {
          "indexed": false,
          "internalType": "uint256",
          "name": "rifaId",
          "type": "uint256"
        },
        {
          "indexed": false,
          "internalType": "address",
          "name": "buyer",
          "type": "address"
        },
        {
          "indexed": false,
          "internalType": "uint256",
          "name": "ticketNumber",
          "type": "uint256"
        }
      ],
      "name": "TicketPurchased",
      "type": "event"
    },
    {
      "inputs": [
        {
          "internalType": "uint256",
          "name": "rifaId",
          "type": "uint256"
        },
        {
          "internalType": "uint256[]",
          "name": "ticketNumbers",
          "type": "uint256[]"
        }
      ],
      "name": "buySpecificTickets",
      "outputs": [],
      "stateMutability": "payable",
      "type": "function"
    },
    {
      "inputs": [
        {
          "internalType": "string",
          "name": "name",
          "type": "string"
        },
        {
          "internalType": "uint256",
          "name": "totalTickets",
          "type": "uint256"
        },
        {
          "internalType": "uint256",
          "name": "ticketPrice",
          "type": "uint256"
        }
      ],
      "name": "createRifa",
      "outputs": [],
      "stateMutability": "nonpayable",
      "type": "function"
    },
    {
      "inputs": [
        {
          "internalType": "uint256",
          "name": "rifaId",
          "type": "uint256"
        }
      ],
      "name": "endRaffleManually",
      "outputs": [],
      "stateMutability": "nonpayable",
      "type": "function"
    },
    {
      "inputs": [
        {
          "internalType": "uint256",
          "name": "rifaId",
          "type": "uint256"
        },
        {
          "internalType": "uint256",
          "name": "ticketNumber",
          "type": "uint256"
        }
      ],
      "name": "getOwnerOfTicket",
      "outputs": [
        {
          "internalType": "address",
          "name": "",
          "type": "address"
        }
      ],
      "stateMutability": "view",
      "type": "function"
    },
    {
      "inputs": [
        {
          "internalType": "uint256",
          "name": "rifaId",
          "type": "uint256"
        }
      ],
      "name": "getRifaBasic",
      "outputs": [
        {
          "internalType": "string",
          "name": "name",
          "type": "string"
        },
        {
          "internalType": "address",
          "name": "owner",
          "type": "address"
        },
        {
          "internalType": "uint256",
          "name": "ticketPrice",
          "type": "uint256"
        },
        {
          "internalType": "uint256",
          "name": "totalTickets",
          "type": "uint256"
        },
        {
          "internalType": "uint256",
          "name": "soldTickets",
          "type": "uint256"
        },
        {
          "internalType": "bool",
          "name": "raffleEnded",
          "type": "bool"
        },
        {
          "internalType": "address",
          "name": "winner",
          "type": "address"
        },
        {
          "internalType": "uint256",
          "name": "winningTicketNumber",
          "type": "uint256"
        }
      ],
      "stateMutability": "view",
      "type": "function"
    },
    {
      "inputs": [],
      "name": "getRifasCount",
      "outputs": [
        {
          "internalType": "uint256",
          "name": "",
          "type": "uint256"
        }
      ],
      "stateMutability": "view",
      "type": "function"
    },
    {
      "inputs": [
        {
          "internalType": "uint256",
          "name": "rifaId",
          "type": "uint256"
        }
      ],
      "name": "getSoldTickets",
      "outputs": [
        {
          "internalType": "uint256[]",
          "name": "",
          "type": "uint256[]"
        }
      ],
      "stateMutability": "view",
      "type": "function"
    },
    {
      "inputs": [
        {
          "internalType": "uint256",
          "name": "",
          "type": "uint256"
        }
      ],
      "name": "rifas",
      "outputs": [
        {
          "internalType": "string",
          "name": "name",
          "type": "string"
        },
        {
          "internalType": "address",
          "name": "owner",
          "type": "address"
        },
        {
          "internalType": "uint256",
          "name": "ticketPrice",
          "type": "uint256"
        },
        {
          "internalType": "uint256",
          "name": "totalTickets",
          "type": "uint256"
        },
        {
          "internalType": "uint256",
          "name": "soldTickets",
          "type": "uint256"
        },
        {
          "internalType": "bool",
          "name": "raffleEnded",
          "type": "bool"
        },
        {
          "internalType": "address",
          "name": "winner",
          "type": "address"
        },
        {
          "internalType": "uint256",
          "name": "winningTicketNumber",
          "type": "uint256"
        }
      ],
      "stateMutability": "view",
      "type": "function"
    }
  ],
  "bytecode": "0x6080604052348015600f57600080fd5b506123838061001f6000396000f3fe60806040526004361061007b5760003560e01c806389d5bb731161004e57806389d5bb731461014e578063a53846271461016a578063c5197e77146101ae578063f04eb6d4146101f25761007b565b80632f021b251461008057806331cbbd00146100bd578063417f7b3b146100e657806356ffc81d14610123575b600080fd5b34801561008c57600080fd5b506100a760048036038101906100a29190611202565b61021b565b6040516100b491906112ed565b60405180910390f35b3480156100c957600080fd5b506100e460048036038101906100df9190611202565b6102df565b005b3480156100f257600080fd5b5061010d6004803603810190610108919061130f565b610510565b60405161011a9190611390565b60405180910390f35b34801561012f57600080fd5b506101386105b7565b60405161014591906113ba565b60405180910390f35b6101686004803603810190610163919061143a565b6105c3565b005b34801561017657600080fd5b50610191600480360381019061018c9190611202565b6109bc565b6040516101a5989796959493929190611545565b60405180910390f35b3480156101ba57600080fd5b506101d560048036038101906101d09190611202565b610b50565b6040516101e9989796959493929190611545565b60405180910390f35b3480156101fe57600080fd5b5061021960048036038101906102149190611620565b610c7d565b005b60606000805490508210610264576040517f08c379a000000000000000000000000000000000000000000000000000000000815260040161025b906116e0565b60405180910390fd5b6000828154811061027857610277611700565b5b90600052602060002090600a02016006018054806020026020016040519081016040528092919081815260200182805480156102d357602002820191906000526020600020905b8154815260200190600101908083116102bf575b50505050509050919050565b806000805490508110610327576040517f08c379a000000000000000000000000000000000000000000000000000000000815260040161031e906116e0565b60405180910390fd5b6000818154811061033b5761033a611700565b5b90600052602060002090600a020160010160009054906101000a900473ffffffffffffffffffffffffffffffffffffffff1673ffffffffffffffffffffffffffffffffffffffff163373ffffffffffffffffffffffffffffffffffffffff16146103da576040517f08c379a00000000000000000000000000000000000000000000000000000000081526004016103d19061177b565b60405180910390fd5b816000805490508110610422576040517f08c379a0000000000000000000000000000000000000000000000000000000008152600401610419906116e0565b60405180910390fd5b6000818154811061043657610435611700565b5b90600052602060002090600a020160050160009054906101000a900460ff1615610495576040517f08c379a000000000000000000000000000000000000000000000000000000000815260040161048c906117e7565b60405180910390fd5b60008084815481106104aa576104a9611700565b5b90600052602060002090600a020190506000816004015411610501576040517f08c379a00000000000000000000000000000000000000000000000000000000081526004016104f890611853565b60405180910390fd5b61050a84610e8e565b50505050565b600080805490508310610558576040517f08c379a000000000000000000000000000000000000000000000000000000000815260040161054f906116e0565b60405180910390fd5b6000838154811061056c5761056b611700565b5b90600052602060002090600a0201600701600083815260200190815260200160002060009054906101000a900473ffffffffffffffffffffffffffffffffffffffff16905092915050565b60008080549050905090565b82600080549050811061060b576040517f08c379a0000000000000000000000000000000000000000000000000000000008152600401610602906116e0565b60405180910390fd5b6000818154811061061f5761061e611700565b5b90600052602060002090600a020160050160009054906101000a900460ff161561067e576040517f08c379a0000000000000000000000000000000000000000000000000000000008152600401610675906117e7565b60405180910390fd5b600083839050116106c4576040517f08c379a00000000000000000000000000000000000000000000000000000000081526004016106bb906118bf565b60405180910390fd5b60008085815481106106d9576106d8611700565b5b90600052602060002090600a020190508060030154848490508260040154610701919061190e565b1115610742576040517f08c379a00000000000000000000000000000000000000000000000000000000081526004016107399061198e565b60405180910390fd5b83839050816002015461075591906119ae565b3414610796576040517f08c379a000000000000000000000000000000000000000000000000000000000815260040161078d90611a3c565b60405180910390fd5b60005b8484905081101561099b5760008585838181106107b9576107b8611700565b5b9050602002013590506000811180156107d6575082600301548111155b610815576040517f08c379a000000000000000000000000000000000000000000000000000000000815260040161080c90611aa8565b60405180910390fd5b600073ffffffffffffffffffffffffffffffffffffffff1683600701600083815260200190815260200160002060009054906101000a900473ffffffffffffffffffffffffffffffffffffffff1673ffffffffffffffffffffffffffffffffffffffff16146108b9576040517f08c379a00000000000000000000000000000000000000000000000000000000081526004016108b090611b14565b60405180910390fd5b3383600701600083815260200190815260200160002060006101000a81548173ffffffffffffffffffffffffffffffffffffffff021916908373ffffffffffffffffffffffffffffffffffffffff1602179055508260060181908060018154018082558091505060019003906000526020600020016000909190919091505582600401600081548092919061094d90611b34565b91905055507fdbaaf4c87ce30816c961a81d110622a3227ede77953d4383d514ff88ab2e0fd387338360405161098593929190611b7c565b60405180910390a1508080600101915050610799565b5080600301548160040154036109b5576109b485610e8e565b5b5050505050565b6060600080600080600080600080805490508910610a0f576040517f08c379a0000000000000000000000000000000000000000000000000000000008152600401610a06906116e0565b60405180910390fd5b6000808a81548110610a2457610a23611700565b5b90600052602060002090600a02019050806000018160010160009054906101000a900473ffffffffffffffffffffffffffffffffffffffff168260020154836003015484600401548560050160009054906101000a900460ff168660080160009054906101000a900473ffffffffffffffffffffffffffffffffffffffff168760090154878054610ab490611be2565b80601f0160208091040260200160405190810160405280929190818152602001828054610ae090611be2565b8015610b2d5780601f10610b0257610100808354040283529160200191610b2d565b820191906000526020600020905b815481529060010190602001808311610b1057829003601f168201915b505050505097509850985098509850985098509850985050919395975091939597565b60008181548110610b6057600080fd5b90600052602060002090600a0201600091509050806000018054610b8390611be2565b80601f0160208091040260200160405190810160405280929190818152602001828054610baf90611be2565b8015610bfc5780601f10610bd157610100808354040283529160200191610bfc565b820191906000526020600020905b815481529060010190602001808311610bdf57829003601f168201915b5050505050908060010160009054906101000a900473ffffffffffffffffffffffffffffffffffffffff16908060020154908060030154908060040154908060050160009054906101000a900460ff16908060080160009054906101000a900473ffffffffffffffffffffffffffffffffffffffff16908060090154905088565b60008211610cc0576040517f08c379a0000000000000000000000000000000000000000000000000000000008152600401610cb790611c5f565b60405180910390fd5b60008111610d03576040517f08c379a0000000000000000000000000000000000000000000000000000000008152600401610cfa90611ccb565b60405180910390fd5b6000600181600181540180825580915050039060005260206000209050506000806001600080549050610d369190611ceb565b81548110610d4757610d46611700565b5b90600052602060002090600a020190508484826000019182610d6a929190611f05565b50338160010160006101000a81548173ffffffffffffffffffffffffffffffffffffffff021916908373ffffffffffffffffffffffffffffffffffffffff1602179055508281600301819055508181600201819055506000816004018190555060008160050160006101000a81548160ff02191690831515021790555060008160080160006101000a81548173ffffffffffffffffffffffffffffffffffffffff021916908373ffffffffffffffffffffffffffffffffffffffff160217905550600081600901819055507f3914ade8b7ad56256069fd8f823e0115ae9d0207630180ec02f95aec5a85db586001600080549050610e689190611ceb565b8686338787604051610e7f96959493929190612011565b60405180910390a15050505050565b6000808281548110610ea357610ea2611700565b5b90600052602060002090600a020190508060050160009054906101000a900460ff1615610f05576040517f08c379a0000000000000000000000000000000000000000000000000000000008152600401610efc906120b9565b60405180910390fd5b6000816004015411610f4c576040517f08c379a0000000000000000000000000000000000000000000000000000000008152600401610f4390611853565b60405180910390fd5b6000610f5a82600601611162565b90506000826006018281548110610f7457610f73611700565b5b90600052602060002001549050600083600701600083815260200190815260200160002060009054906101000a900473ffffffffffffffffffffffffffffffffffffffff169050600084600201548560040154610fd191906119ae565b905060006064605083610fe491906119ae565b610fee9190612108565b905060008183610ffe9190611ceb565b90508373ffffffffffffffffffffffffffffffffffffffff166108fc839081150290604051600060405180830381858888f19350505050158015611046573d6000803e3d6000fd5b508660010160009054906101000a900473ffffffffffffffffffffffffffffffffffffffff1673ffffffffffffffffffffffffffffffffffffffff166108fc829081150290604051600060405180830381858888f193505050501580156110b1573d6000803e3d6000fd5b50838760080160006101000a81548173ffffffffffffffffffffffffffffffffffffffff021916908373ffffffffffffffffffffffffffffffffffffffff16021790555084876009018190555060018760050160006101000a81548160ff0219169083151502179055507fe0b2a72a0644b093aac275024c05c7c28851a0b572557a32241d13634a0f3e08888587856040516111509493929190612139565b60405180910390a15050505050505050565b6000806001436111729190611ceb565b40905060008142448660405160200161118e94939291906122d2565b6040516020818303038152906040528051906020012060001c90508380549050816111b9919061231c565b92505050919050565b600080fd5b600080fd5b6000819050919050565b6111df816111cc565b81146111ea57600080fd5b50565b6000813590506111fc816111d6565b92915050565b600060208284031215611218576112176111c2565b5b6000611226848285016111ed565b91505092915050565b600081519050919050565b600082825260208201905092915050565b6000819050602082019050919050565b611264816111cc565b82525050565b6000611276838361125b565b60208301905092915050565b6000602082019050919050565b600061129a8261122f565b6112a4818561123a565b93506112af8361124b565b8060005b838110156112e05781516112c7888261126a565b97506112d283611282565b9250506001810190506112b3565b5085935050505092915050565b60006020820190508181036000830152611307818461128f565b905092915050565b60008060408385031215611326576113256111c2565b5b6000611334858286016111ed565b9250506020611345858286016111ed565b9150509250929050565b600073ffffffffffffffffffffffffffffffffffffffff82169050919050565b600061137a8261134f565b9050919050565b61138a8161136f565b82525050565b60006020820190506113a56000830184611381565b92915050565b6113b4816111cc565b82525050565b60006020820190506113cf60008301846113ab565b92915050565b600080fd5b600080fd5b600080fd5b60008083601f8401126113fa576113f96113d5565b5b8235905067ffffffffffffffff811115611417576114166113da565b5b602083019150836020820283011115611433576114326113df565b5b9250929050565b600080600060408486031215611453576114526111c2565b5b6000611461868287016111ed565b935050602084013567ffffffffffffffff811115611482576114816111c7565b5b61148e868287016113e4565b92509250509250925092565b600081519050919050565b600082825260208201905092915050565b60005b838110156114d45780820151818401526020810190506114b9565b60008484015250505050565b6000601f19601f8301169050919050565b60006114fc8261149a565b61150681856114a5565b93506115168185602086016114b6565b61151f816114e0565b840191505092915050565b60008115159050919050565b61153f8161152a565b82525050565b6000610100820190508181036000830152611560818b6114f1565b905061156f602083018a611381565b61157c60408301896113ab565b61158960608301886113ab565b61159660808301876113ab565b6115a360a0830186611536565b6115b060c0830185611381565b6115bd60e08301846113ab565b9998505050505050505050565b60008083601f8401126115e0576115df6113d5565b5b8235905067ffffffffffffffff8111156115fd576115fc6113da565b5b602083019150836001820283011115611619576116186113df565b5b9250929050565b6000806000806060858703121561163a576116396111c2565b5b600085013567ffffffffffffffff811115611658576116576111c7565b5b611664878288016115ca565b94509450506020611677878288016111ed565b9250506040611688878288016111ed565b91505092959194509250565b7f5269666120696e6578697374656e746500000000000000000000000000000000600082015250565b60006116ca6010836114a5565b91506116d582611694565b602082019050919050565b600060208201905081810360008301526116f9816116bd565b9050919050565b7f4e487b7100000000000000000000000000000000000000000000000000000000600052603260045260246000fd5b7f4e616f20656820646f6e6f206461207269666100000000000000000000000000600082015250565b60006117656013836114a5565b91506117708261172f565b602082019050919050565b6000602082019050818103600083015261179481611758565b9050919050565b7f52696661206a61207465726d696e6f7500000000000000000000000000000000600082015250565b60006117d16010836114a5565b91506117dc8261179b565b602082019050919050565b60006020820190508181036000830152611800816117c4565b9050919050565b7f4e656e68756d2062696c686574652076656e6469646f00000000000000000000600082015250565b600061183d6016836114a5565b915061184882611807565b602082019050919050565b6000602082019050818103600083015261186c81611830565b9050919050565b7f4573636f6c686120616f206d656e6f7320756d2062696c686574650000000000600082015250565b60006118a9601b836114a5565b91506118b482611873565b602082019050919050565b600060208201905081810360008301526118d88161189c565b9050919050565b7f4e487b7100000000000000000000000000000000000000000000000000000000600052601160045260246000fd5b6000611919826111cc565b9150611924836111cc565b925082820190508082111561193c5761193b6118df565b5b92915050565b7f4e616f2068612062696c686574657320737566696369656e7465730000000000600082015250565b6000611978601b836114a5565b915061198382611942565b602082019050919050565b600060208201905081810360008301526119a78161196b565b9050919050565b60006119b9826111cc565b91506119c4836111cc565b92508282026119d2816111cc565b915082820484148315176119e9576119e86118df565b5b5092915050565b7f56616c6f7220696e636f727265746f0000000000000000000000000000000000600082015250565b6000611a26600f836114a5565b9150611a31826119f0565b602082019050919050565b60006020820190508181036000830152611a5581611a19565b9050919050565b7f4e756d65726f2064652062696c6865746520696e76616c69646f000000000000600082015250565b6000611a92601a836114a5565b9150611a9d82611a5c565b602082019050919050565b60006020820190508181036000830152611ac181611a85565b9050919050565b7f42696c68657465206a612076656e6469646f0000000000000000000000000000600082015250565b6000611afe6012836114a5565b9150611b0982611ac8565b602082019050919050565b60006020820190508181036000830152611b2d81611af1565b9050919050565b6000611b3f826111cc565b91507fffffffffffffffffffffffffffffffffffffffffffffffffffffffffffffffff8203611b7157611b706118df565b5b600182019050919050565b6000606082019050611b9160008301866113ab565b611b9e6020830185611381565b611bab60408301846113ab565b949350505050565b7f4e487b7100000000000000000000000000000000000000000000000000000000600052602260045260246000fd5b60006002820490506001821680611bfa57607f821691505b602082108103611c0d57611c0c611bb3565b5b50919050565b7f546f74616c2064652062696c6865746573206465766520736572203e20300000600082015250565b6000611c49601e836114a5565b9150611c5482611c13565b602082019050919050565b60006020820190508181036000830152611c7881611c3c565b9050919050565b7f507265636f20646f2062696c68657465206465766520736572203e2030000000600082015250565b6000611cb5601d836114a5565b9150611cc082611c7f565b602082019050919050565b60006020820190508181036000830152611ce481611ca8565b9050919050565b6000611cf6826111cc565b9150611d01836111cc565b9250828203905081811115611d1957611d186118df565b5b92915050565b600082905092915050565b7f4e487b7100000000000000000000000000000000000000000000000000000000600052604160045260246000fd5b60008190508160005260206000209050919050565b60006020601f8301049050919050565b600082821b905092915050565b600060088302611dbb7fffffffffffffffffffffffffffffffffffffffffffffffffffffffffffffffff82611d7e565b611dc58683611d7e565b95508019841693508086168417925050509392505050565b6000819050919050565b6000611e02611dfd611df8846111cc565b611ddd565b6111cc565b9050919050565b6000819050919050565b611e1c83611de7565b611e30611e2882611e09565b848454611d8b565b825550505050565b600090565b611e45611e38565b611e50818484611e13565b505050565b5b81811015611e7457611e69600082611e3d565b600181019050611e56565b5050565b601f821115611eb957611e8a81611d59565b611e9384611d6e565b81016020851015611ea2578190505b611eb6611eae85611d6e565b830182611e55565b50505b505050565b600082821c905092915050565b6000611edc60001984600802611ebe565b1980831691505092915050565b6000611ef58383611ecb565b9150826002028217905092915050565b611f0f8383611d1f565b67ffffffffffffffff811115611f2857611f27611d2a565b5b611f328254611be2565b611f3d828285611e78565b6000601f831160018114611f6c5760008415611f5a578287013590505b611f648582611ee9565b865550611fcc565b601f198416611f7a86611d59565b60005b82811015611fa257848901358255600182019150602085019450602081019050611f7d565b86831015611fbf5784890135611fbb601f891682611ecb565b8355505b6001600288020188555050505b50505050505050565b82818337600083830152505050565b6000611ff083856114a5565b9350611ffd838584611fd5565b612006836114e0565b840190509392505050565b600060a08201905061202660008301896113ab565b8181036020830152612039818789611fe4565b90506120486040830186611381565b61205560608301856113ab565b61206260808301846113ab565b979650505050505050565b7f52696661206a6120656e63657272616461000000000000000000000000000000600082015250565b60006120a36011836114a5565b91506120ae8261206d565b602082019050919050565b600060208201905081810360008301526120d281612096565b9050919050565b7f4e487b7100000000000000000000000000000000000000000000000000000000600052601260045260246000fd5b6000612113826111cc565b915061211e836111cc565b92508261212e5761212d6120d9565b5b828204905092915050565b600060808201905061214e60008301876113ab565b61215b6020830186611381565b61216860408301856113ab565b61217560608301846113ab565b95945050505050565b6000819050919050565b6000819050919050565b6121a361219e8261217e565b612188565b82525050565b6000819050919050565b6121c46121bf826111cc565b6121a9565b82525050565b600081549050919050565b600081905092915050565b60008190508160005260206000209050919050565b6121fe816111cc565b82525050565b600061221083836121f5565b60208301905092915050565b60008160001c9050919050565b6000819050919050565b60006122466122418361221c565b612229565b9050919050565b60006122598254612233565b9050919050565b6000600182019050919050565b6000612278826121ca565b61228281856121d5565b935061228d836121e0565b8060005b838110156122c5576122a28261224d565b6122ac8882612204565b97506122b783612260565b925050600181019050612291565b5085935050505092915050565b60006122de8287612192565b6020820191506122ee82866121b3565b6020820191506122fe82856121b3565b60208201915061230e828461226d565b915081905095945050505050565b6000612327826111cc565b9150612332836111cc565b925082612342576123416120d9565b5b82820690509291505056fea264697066735822122042b63cece1d1ad70053f25fc2783bd9ef07533b9c9119c56b1c8f571b6a9263d64736f6c634300081c0033",
  "linkReferences": {},
  "deployedLinkReferences": {}
}